{
  "contractName": "MediChain",
  "abi": [
    {
      "constant": true,
      "inputs": [
        {
          "name": "",
          "type": "uint256"
        }
      ],
      "name": "sm",
      "outputs": [
        {
          "name": "id",
          "type": "uint256"
        },
        {
          "name": "id_supplier",
          "type": "uint256"
        },
        {
          "name": "name",
          "type": "string"
        },
        {
          "name": "city",
          "type": "string"
        }
      ],
      "payable": false,
      "stateMutability": "view",
      "type": "function"
    },
    {
      "constant": true,
      "inputs": [],
      "name": "t2",
      "outputs": [
        {
          "name": "",
          "type": "uint256"
        }
      ],
      "payable": false,
      "stateMutability": "view",
      "type": "function"
    },
    {
      "constant": true,
      "inputs": [
        {
          "name": "",
          "type": "uint256"
        }
      ],
      "name": "dm",
      "outputs": [
        {
          "name": "id",
          "type": "uint256"
        },
        {
          "name": "price",
          "type": "uint256"
        },
        {
          "name": "name",
          "type": "string"
        },
        {
          "name": "mrp",
          "type": "uint256"
        },
        {
          "name": "mfgdate",
          "type": "uint256"
        },
        {
          "name": "validity",
          "type": "uint256"
        }
      ],
      "payable": false,
      "stateMutability": "view",
      "type": "function"
    },
    {
      "constant": true,
      "inputs": [],
      "name": "t1",
      "outputs": [
        {
          "name": "",
          "type": "uint256"
        }
      ],
      "payable": false,
      "stateMutability": "view",
      "type": "function"
    },
    {
      "constant": false,
      "inputs": [
        {
          "name": "_id",
          "type": "uint256"
        },
        {
          "name": "_price",
          "type": "uint256"
        },
        {
          "name": "_name",
          "type": "string"
        },
        {
          "name": "_mrp",
          "type": "uint256"
        },
        {
          "name": "_mfgdate",
          "type": "uint256"
        },
        {
          "name": "_validity",
          "type": "uint256"
        },
        {
          "name": "_chain",
          "type": "uint256[]"
        }
      ],
      "name": "setDrug",
      "outputs": [],
      "payable": false,
      "stateMutability": "nonpayable",
      "type": "function"
    },
    {
      "constant": true,
      "inputs": [
        {
          "name": "_id",
          "type": "uint256"
        }
      ],
      "name": "getDrug",
      "outputs": [
        {
          "name": "",
          "type": "uint256"
        },
        {
          "name": "",
          "type": "uint256"
        },
        {
          "name": "",
          "type": "string"
        },
        {
          "name": "",
          "type": "uint256"
        },
        {
          "name": "",
          "type": "uint256"
        },
        {
          "name": "",
          "type": "uint256"
        },
        {
          "name": "",
          "type": "uint256[]"
        }
      ],
      "payable": false,
      "stateMutability": "view",
      "type": "function"
    },
    {
      "constant": true,
      "inputs": [],
      "name": "getDrugNo",
      "outputs": [
        {
          "name": "",
          "type": "uint256"
        }
      ],
      "payable": false,
      "stateMutability": "view",
      "type": "function"
    },
    {
      "constant": false,
      "inputs": [
        {
          "name": "_id",
          "type": "uint256"
        },
        {
          "name": "_id_supplier",
          "type": "uint256"
        },
        {
          "name": "_name",
          "type": "string"
        },
        {
          "name": "_city",
          "type": "string"
        }
      ],
      "name": "setSupplier",
      "outputs": [],
      "payable": false,
      "stateMutability": "nonpayable",
      "type": "function"
    },
    {
      "constant": true,
      "inputs": [
        {
          "name": "_id_supplier",
          "type": "uint256"
        }
      ],
      "name": "getSupplier",
      "outputs": [
        {
          "name": "",
          "type": "uint256"
        },
        {
          "name": "",
          "type": "uint256"
        },
        {
          "name": "",
          "type": "string"
        },
        {
          "name": "",
          "type": "string"
        }
      ],
      "payable": false,
      "stateMutability": "view",
      "type": "function"
    },
    {
      "constant": true,
      "inputs": [],
      "name": "getSupplierNo",
      "outputs": [
        {
          "name": "",
          "type": "uint256"
        }
      ],
      "payable": false,
      "stateMutability": "view",
      "type": "function"
    }
  ],
  "bytecode": "0x608060405234801561001057600080fd5b50611141806100206000396000f3006080604052600436106100a4576000357c0100000000000000000000000000000000000000000000000000000000900463ffffffff1680630d8e792e146100a957806382d88807146100d4578063a51ec1a2146101b2578063b8840d3d146102d2578063baf2f868146103e3578063c043ddcd1461040e578063e0620e1d14610439578063eb37a88214610559578063f148b4b21461061c578063fb5343f3146106e5575b600080fd5b3480156100b557600080fd5b506100be610710565b6040518082815260200191505060405180910390f35b3480156100e057600080fd5b506101b06004803603810190808035906020019092919080359060200190929190803590602001908201803590602001908080601f01602080910402602001604051908101604052809392919081815260200183838082843782019150505050505091929192908035906020019092919080359060200190929190803590602001909291908035906020019082018035906020019080806020026020016040519081016040528093929190818152602001838360200280828437820191505050505050919291929050505061071a565b005b3480156101be57600080fd5b506101dd60048036038101908080359060200190929190505050610893565b604051808581526020018481526020018060200180602001838103835285818151815260200191508051906020019080838360005b8381101561022d578082015181840152602081019050610212565b50505050905090810190601f16801561025a5780820380516001836020036101000a031916815260200191505b50838103825284818151815260200191508051906020019080838360005b83811015610293578082015181840152602081019050610278565b50505050905090810190601f1680156102c05780820380516001836020036101000a031916815260200191505b50965050505050505060405180910390f35b3480156102de57600080fd5b506102fd60048036038101908080359060200190929190505050610a02565b604051808881526020018781526020018060200186815260200185815260200184815260200180602001838103835288818151815260200191508051906020019080838360005b8381101561035f578082015181840152602081019050610344565b50505050905090810190601f16801561038c5780820380516001836020036101000a031916815260200191505b50838103825284818151815260200191508051906020019060200280838360005b838110156103c85780820151818401526020810190506103ad565b50505050905001995050505050505050505060405180910390f35b3480156103ef57600080fd5b506103f8610bb4565b6040518082815260200191505060405180910390f35b34801561041a57600080fd5b50610423610bba565b6040518082815260200191505060405180910390f35b34801561044557600080fd5b5061046460048036038101908080359060200190929190505050610bc3565b604051808581526020018481526020018060200180602001838103835285818151815260200191508051906020019080838360005b838110156104b4578082015181840152602081019050610499565b50505050905090810190601f1680156104e15780820380516001836020036101000a031916815260200191505b50838103825284818151815260200191508051906020019080838360005b8381101561051a5780820151818401526020810190506104ff565b50505050905090810190601f1680156105475780820380516001836020036101000a031916815260200191505b50965050505050505060405180910390f35b34801561056557600080fd5b5061061a6004803603810190808035906020019092919080359060200190929190803590602001908201803590602001908080601f0160208091040260200160405190810160405280939291908181526020018383808284378201915050505050509192919290803590602001908201803590602001908080601f0160208091040260200160405190810160405280939291908181526020018383808284378201915050505050509192919290505050610d6a565b005b34801561062857600080fd5b5061064760048036038101908080359060200190929190505050610ed3565b6040518087815260200186815260200180602001858152602001848152602001838152602001828103825286818151815260200191508051906020019080838360005b838110156106a557808201518184015260208101905061068a565b50505050905090810190601f1680156106d25780820380516001836020036101000a031916815260200191505b5097505050505050505060405180910390f35b3480156106f157600080fd5b506106fa610fb6565b6040518082815260200191505060405180910390f35b6000600154905090565b610722610fbc565b60e06040519081016040528089815260200188815260200187815260200186815260200185815260200184815260200183815250905080600260008a81526020019081526020016000206000820151816000015560208201518160010155604082015181600201908051906020019061079c929190610ffa565b50606082015181600301556080820151816004015560a0820151816005015560c08201518160060190805190602001906107d792919061107a565b509050506003819080600181540180825580915050906001820390600052602060002090600702016000909192909190915060008201518160000155602082015181600101556040820151816002019080519060200190610839929190610ffa565b50606082015181600301556080820151816004015560a0820151816005015560c082015181600601908051906020019061087492919061107a565b5050505060008081548092919060010191905055505050505050505050565b6005818154811015156108a257fe5b9060005260206000209060040201600091509050806000015490806001015490806002018054600181600116156101000203166002900480601f01602080910402602001604051908101604052809291908181526020018280546001816001161561010002031660029004801561095a5780601f1061092f5761010080835404028352916020019161095a565b820191906000526020600020905b81548152906001019060200180831161093d57829003601f168201915b505050505090806003018054600181600116156101000203166002900480601f0160208091040260200160405190810160405280929190818152602001828054600181600116156101000203166002900480156109f85780601f106109cd576101008083540402835291602001916109f8565b820191906000526020600020905b8154815290600101906020018083116109db57829003601f168201915b5050505050905084565b6000806060600080600060606002600089815260200190815260200160002060000154600260008a815260200190815260200160002060010154600260008b8152602001908152602001600020600201600260008c815260200190815260200160002060030154600260008d815260200190815260200160002060040154600260008e815260200190815260200160002060050154600260008f8152602001908152602001600020600601848054600181600116156101000203166002900480601f016020809104026020016040519081016040528092919081815260200182805460018160011615610100020316600290048015610b425780601f10610b1757610100808354040283529160200191610b42565b820191906000526020600020905b815481529060010190602001808311610b2557829003601f168201915b5050505050945080805480602002602001604051908101604052809291908181526020018280548015610b9457602002820191906000526020600020905b815481526020019060010190808311610b80575b505050505090509650965096509650965096509650919395979092949650565b60015481565b60008054905090565b600080606080600460008681526020019081526020016000206000015460046000878152602001908152602001600020600101546004600088815260200190815260200160002060020160046000898152602001908152602001600020600301818054600181600116156101000203166002900480601f016020809104026020016040519081016040528092919081815260200182805460018160011615610100020316600290048015610cb85780601f10610c8d57610100808354040283529160200191610cb8565b820191906000526020600020905b815481529060010190602001808311610c9b57829003601f168201915b50505050509150808054600181600116156101000203166002900480601f016020809104026020016040519081016040528092919081815260200182805460018160011615610100020316600290048015610d545780601f10610d2957610100808354040283529160200191610d54565b820191906000526020600020905b815481529060010190602001808311610d3757829003601f168201915b5050505050905093509350935093509193509193565b610d726110c7565b608060405190810160405280868152602001858152602001848152602001838152509050806004600086815260200190815260200160002060008201518160000155602082015181600101556040820151816002019080519060200190610dda929190610ffa565b506060820151816003019080519060200190610df7929190610ffa565b50905050600260008681526020019081526020016000206006018490806001815401808255809150509060018203906000526020600020016000909192909190915055506005819080600181540180825580915050906001820390600052602060002090600402016000909192909190915060008201518160000155602082015181600101556040820151816002019080519060200190610e99929190610ffa565b506060820151816003019080519060200190610eb6929190610ffa565b505050506001600081548092919060010191905055505050505050565b600381815481101515610ee257fe5b9060005260206000209060070201600091509050806000015490806001015490806002018054600181600116156101000203166002900480601f016020809104026020016040519081016040528092919081815260200182805460018160011615610100020316600290048015610f9a5780601f10610f6f57610100808354040283529160200191610f9a565b820191906000526020600020905b815481529060010190602001808311610f7d57829003601f168201915b5050505050908060030154908060040154908060050154905086565b60005481565b60e060405190810160405280600081526020016000815260200160608152602001600081526020016000815260200160008152602001606081525090565b828054600181600116156101000203166002900490600052602060002090601f016020900481019282601f1061103b57805160ff1916838001178555611069565b82800160010185558215611069579182015b8281111561106857825182559160200191906001019061104d565b5b50905061107691906110f0565b5090565b8280548282559060005260206000209081019282156110b6579160200282015b828111156110b557825182559160200191906001019061109a565b5b5090506110c391906110f0565b5090565b608060405190810160405280600081526020016000815260200160608152602001606081525090565b61111291905b8082111561110e5760008160009055506001016110f6565b5090565b905600a165627a7a72305820bb528f971fd5c12177bae3efb53d53d545852ff700aa4e94abc0bdaacf1751de0029",
  "source": "pragma solidity ^0.4.18;\n\ncontract MediChain {\n\n    uint public t1; \n    uint public t2; \n\n    struct drug{\n        uint id;\n        uint price;\n        string name;\n        uint mrp;\n        uint mfgdate;\n        uint validity;\n        uint[] chain;\n    }\n\n    struct supplier{\n        uint id;\n        uint id_supplier;\n        string name;\n        string city;\n    }\n\n\n    mapping (uint => drug) d1;\n    drug[] public dm;\n\n    mapping (uint => supplier) s1;\n    supplier[] public sm;\n\n    function setDrug(uint _id,uint _price,string _name,uint _mrp, uint _mfgdate,uint _validity, uint[] _chain) public {\n        var dnew = drug(_id,_price,_name,_mrp,_mfgdate,_validity,_chain);\n        d1[_id] = dnew;\n        dm.push(dnew);\n        t1++;\n    }\n\n    function getDrug(uint _id) public view returns(uint,uint,string,uint,uint,uint,uint[]) {\n        return (d1[_id].id,d1[_id].price,d1[_id].name,d1[_id].mrp,d1[_id].mfgdate,d1[_id].validity,d1[_id].chain);\n    }\n\n\n    function getDrugNo() public view returns(uint256) {\n        return (t1);\n    }\n\n    function setSupplier(uint _id,uint _id_supplier,string _name,string _city) public {\n        var snew = supplier(_id,_id_supplier,_name,_city);\n        s1[_id_supplier] = snew;\n        d1[_id].chain.push(_id_supplier);\n        sm.push(snew);\n        t2++;\n    }\n\n    function getSupplier(uint _id_supplier) public view returns(uint,uint,string,string) {\n        return (s1[_id_supplier].id,s1[_id_supplier].id_supplier,s1[_id_supplier].name,s1[_id_supplier].city);\n    }\n\n    function getSupplierNo() public view returns(uint256) {\n        return (t2);\n    }\n}\n",
  "sourcePath": "/home/swap/medichain/contracts/MediChain.sol",
  "compiler": {
    "name": "solc",
    "version": "0.4.24+commit.e67f0147.Emscripten.clang"
  },
  "schemaVersion": "2.0.1",
  "updatedAt": "2018-08-24T12:18:32.084Z"
}